S01D000069486572625F43726F73735F42656C745F536C61742E73726563DB
S11300000C9469000C9486000C9486000C94860071
S11300100C9486000C94B1010C9486000C94860018
S11300200C9486000C9486000C9486000C94860034
S11300300C9486000C9486000C9418040C9486008E
S11300400C9486000C9486000C947A040C9486001C
S11300500C9486000C9486000C9486000C94860004
S11300600C9486000C94860040023D02160249025C
S11300706B026B026B026B026B026B026B026B0214
S11300806B026B026B0219023A026B0216026B02DC
S11300906B026B026B026B026B026B026B026B02F4
S11300A06B026B026B026B026B02460243026B0231
S11300B06B026B026B026B026B026B026B026B02D4
S11300C06B026B026B026B026B026B026B026B02C4
S11300D06B0211241FBECFEFD8E0DEBFCDBF11E00D
S11300E0A0E0B1E0E6E4F7E102C005900D92A03192
S11300F0B107D9F721E0A0E1B1E001C01D92AC3510
S1130100B207E1F70E94F9010C94A10B0C940000D2
S1130110CF92DF92EF92FF920F931F93CF93DF93CF
S1130120CDB7DEB789E290E0FC01808184708093D2
S1130130300180913001882309F4D5C080911001E9
S1130140882F90E08534910509F473C085359105B5
S113015009F0E1C008E810E020913101309132014A
S113016040913301509134018091270190912801ED
S1130170CC01A0E0B0E069017A01C81AD90AEA0A00
S1130180FB0AD701C601BC01CD010E94720ADC0141
S1130190CB0120911B0130911C0140911D01509114
S11301A01E01BC01CD010E94000BDC01CB0120E04B
S11301B030E040E251E4BC01CD010E947A09DC0147
S11301C0CB01BC01CD010E94460ADC01CB01F80140
S11301D09183808388E890E0FC01208131818091C3
S11301E02301909124010A978217930708F520911F
S11301F02501309126018091140190911501280F59
S1130200391F8091270190912801820F931F9093A9
S113021036018093350188E890E0209123013091E4
S11302202401FC013183208382E5809310015AC0AC
S113023059C008E810E08091230190912401CC0179
S1130240A0E0B0E0BC01CD010E94720A6B017C0108
S11302508091310190913201A0913301B091340128
S1130260BC01CD010E94720ADC01CB0120911F0167
S1130270309120014091210150912201BC01CD0116
S11302800E94000BDC01CB019C01AD01C701B6014A
S11302900E947909DC01CB01BC01CD010E94460A10
S11302A0DC01CB01F8019183808388E890E0FC01B4
S11302B0808191818A309105A0F488E890E0FC0166
S11302C01182108210923101109232011092330186
S11302D0109234018FEF8093110186E48093100112
S11302E000C0000018C088E890E0FC011182108270
S11302F088E290E028E3FC012083109211018CE451
S1130300809310018BE290E02BE230E0F901208130
S11303102068FC012083DF91CF911F910F91FF9002
S1130320EF90DF90CF900895CF93DF93CDB7DEB7F2
S113033089E290E0FC01808180932F0180912F015C
S113034084708093300180912F01807780932F01F6
S113035080912F0182958F7080932F01DF91CF912F
S113036008951F920F9200905F000F9211242F9313
S11303703F938F939F93EF93FF93CF93DF93CDB7E7
S1130380DEB789E290E0FC018081807780932F01C1
S113039080912F0182958F7080932F018091290184
S11303A0882369F088E290E020912F01222F30E029
S11303B0285F3E4FF9012081FC0120830CC088E2B4
S11303C090E020912F01222F30E020503F4FF9017F
S11303D02081FC012083DF91CF91FF91EF919F91C8
S11303E08F913F912F910F9000925F000F901F907B
S11303F01895CF93DF93CDB7DEB70E946D0280913D
S11304001001882F90E0AA2797FDA095BA2F43E406
S113041050E024E330E0841B950B2817390708F4D7
S11304205AC08C5C9F4FFC010C94850B0E94880081
S113043053C02091310130913201409133015091E8
S113044034018091350190913601CC01A0E0B0E0F7
S113045082179307A407B50760F410923101109234
S11304603201109233011092340185E4809310011B
S113047033C032C00E94FB082FC00E94DC082CC08D
S11304800E94B10529C00E94390926C00E944E0964
S113049023C08091310190913201A0913301B09138
S11304A034018D32F1E09F07A105B10598F088E68B
S11304B090E028E630E0F90120812B7FFC012083C5
S11304C088E290E020910F01FC01208385E680936F
S11304D0100102C001C0000092CFCF93DF9300D07F
S11304E000D0CDB7DEB78AE290E02AE8FC01208391
S11304F086E490E0FC01108287E490E029EFFC019F
S1130500208384E490E023E0FC01208385E490E0F0
S113051025E430E0F90120812B60FC0120838EE684
S113052090E02EE630E0F90120812A60FC0120836E
S11305308AE290E02AE230E0F90120812260FC01A5
S113054020838AE290E02AE230E0F90120812E7FC4
S1130550FC01208385EC90E0FC01108284EC90E0A7
S11305602FECFC01208382EC90E026E3FC01208345
S113057081EC90E020E9FC01208384E290E024E215
S113058030E0F90120812260FC01208384E290E0C4
S113059024E230E0F90120812E7FFC01208385E2F2
S11305A090E025E230E0F90120812270FC012083F3
S11305B084E890E0FC011182108286E890E02FEF3D
S11305C030E0FC013183208380E890E020E830E0D3
S11305D0F90120812268FC01208381E890E021E870
S11305E030E0F90120812160FC01208388E890E05B
S11305F0FC011182108287E290E027E230E0F901E9
S113060020812F63FC01208388E290E020910F0178
S1130610FC01208380E390E00E948B0B80933D01DA
S113062080913D018F3F51F480E380933D0180919F
S11306303D01682F80E390E00E94930B80913D017F
S1130640282F30E0C901880F991F880F991F820F46
S1130650931FCC9690931301809312018091120101
S113066090911301CC01A0E0B0E0BC01CD010E9447
S1130670720ADC01CB012CE53FE842EA50E4BC01FC
S1130680CD010E94000BDC01CB01BC01CD010E9415
S1130690460ADC01CB0190931901809318018091E3
S11306A01801909119019C0140E050E08EE19CE614
S11306B0A2E0B0E0BC01CD010E94630BDA01C901E4
S11306C0909319018093180182E390E00E948B0BB0
S11306D080933D0180913D018F3F51F487E08093E9
S11306E03D0180913D01682F82E390E00E94930BCD
S11306F080913D0180931A0181E290E00E948B0B6E
S113070080933D0180913D01843048F010923D0179
S113071080913D01682F81E290E00E94930B8091CB
S11307203D01282F30E044E6429FC001439F900DD5
S1130730112488539F4F909315018093140182E2F2
S113074090E00E948B0B80933D0180913D018430A9
S113075048F010923D0180913D01682F82E290E0C3
S11307600E94930B80913D01282F30E044E6429F84
S1130770C001439F900D112488539F4F90931701FC
S113078080931601109231011092320110923301BC
S11307901092340110925901109257011092530192
S11307A01092550110925801109256011092520164
S11307B0109254010E9490050E94940180912F018F
S11307C08823A1F080912F01873080F48DE690E09A
S11307D02DE630E0F90120812067FC0120838FEFB2
S11307E08093110183E48093100105C010921101DC
S11307F08CE480931001789487E78093100183E25E
S113080090E0FC018081882F90E081709927009707
S113081041F083E48093100186E080934A010E94B2
S1130820FF070F900F900F900F90DF91CF910895D5
S11308301F920F9200905F000F9211242F933F9309
S11308404F935F936F937F938F939F93AF93BF93D4
S1130850EF93FF93CF93DF93CDB7DEB78091100171
S1130860853621F480914401813099F480913101DD
S113087090913201A0913301B09134010196A11DF0
S1130880B11D8093310190933201A0933301B09351
S11308903401809144018130C9F4809131019091F7
S11308A03201A0913301B0913401873078F0809106
S11308B053018F5F809353010E94900587E78093D3
S11308C0100181EC90E028E9FC012083DF91CF91B5
S11308D0FF91EF91BF91AF919F918F917F916F9114
S11308E05F914F913F912F910F9000925F000F9075
S11308F01F9018951F920F9200905F000F92112481
S11309002F933F934F935F936F937F938F939F9313
S1130910AF93BF93EF93FF93CF93DF93CDB7DEB73E
S113092080914401823008F0E7C080EC90E0FC0143
S11309308081882F90E080719927009711F186ECCF
S113094090E0FC01808180935B01109249018EEF5D
S113095080934A018EEF80934B018EEF80934C017C
S113096084E0809345011092460181EC90E028E8F0
S1130970FC01208383E48093100182E0809344018E
S1130980BBC080EC90E0FC01808188230CF0B4C0F3
S113099080914401882331F481E08093440187E706
S11309A08093100180EC90E0FC018081882F90E01E
S11309B084709927009769F480914501882F90E00D
S11309C026EC30E0F9012081875B9E4FFC012083F7
S11309D012C080914501882F90E0875B9E4F2EEFD7
S11309E0FC01208386EC90E0FC01808180935B0114
S11309F081E080935A01809145018F5F8093450186
S1130A008091460181508093460180914501883050
S1130A1010F01092460180914501823049F5909181
S1130A20490180914A019817C1F480914501882FAA
S1130A3090E00197875B9E4FFC01808180788093D2
S1130A40510180915101882321F081E08093460176
S1130A500FC086E0809346010BC086EC90E0FC0159
S1130A60808180935B010E94900587E78093100149
S1130A7080914601882399F480914501833078F070
S1130A8080915A01882359F481EC90E028E8FC0114
S1130A90208383E48093100182E0809344011092C8
S1130AA0310110923201109233011092340180917D
S1130AB04501813009F5809149018E3FE9F486ECC6
S1130AC090E0FC01808180935B01109231011092CF
S1130AD0320110923301109234010E94900587E78D
S1130AE08093100182EC90E026E3FC01208381ECEA
S1130AF090E028E9FC012083DF91CF91FF91EF91F1
S1130B00BF91AF919F918F917F916F915F914F9121
S1130B103F912F910F9000925F000F901F901895B6
S1130B20CF93DF93CDB7DEB710925A0110924501EF
S1130B308FEF809346018091310190913201A09111
S1130B403301B0913401909348018093470110928E
S1130B50440181EC90E020E9FC012083DF91CF91F6
S1130B600895CF93DF93CDB7DEB72D970FB6F894E2
S1130B70DEBF0FBECDBF80914401823009F0B5C104
S1130B801A82198221C08981992787FD9095875BF4
S1130B909E4FFC0120818981992787FD909580587B
S1130BA09F4F622F0E94930B8981992787FD90950F
S1130BB0875B9E4FFC0180818E3F19F48A818F5F91
S1130BC08A8389818F5F89838981282F332727FD31
S1130BD0309580914501882F90E0281739079CF2C1
S1130BE080914B01882324F08A8183300CF41A828B
S1130BF08A81882309F06DC180914B0180788987AF
S1130C008985882311F19091490180914A019817AF
S1130C1089F490914A0180914B01981759F483E02B
S1130C2080934401809155018F5F809355010E9408
S1130C30FF0759C1809159018F5F809359010E9428
S1130C40900583E4809310014EC11B821D821C8297
S1130C501E821F82188619825AC08981992787FDAE
S1130C609095875B9E4FFC018081807C8A838A817A
S1130C7086FB880F880B80F98A838A81882379F41C
S1130C808B81882361F48981992787FD9095875BFF
S1130C909E4FFC0180818E838FEF8B8335C08981C9
S1130CA0992787FD9095875B9E4FFC018081807317
S1130CB08A838A8185958595859585958A838A8198
S1130CC0813081F48C81882369F48981992787FD97
S1130CD09095875B9E4FFC0180818F708F838FEF8F
S1130CE08C8312C08A81823079F48D81882361F4E7
S1130CF08981992787FD9095875B9E4FFC018081B0
S1130D008F7088878FEF8D8389818F5F8983898135
S1130D10282F332727FD309580914501882F90E0B7
S1130D20281739070CF499CF8B81882309F4CBC099
S1130D308D81882309F4C7C08C81882309F4C3C03A
S1130D408E8180933D0180913D018B3318F08AE3BD
S1130D5080933D0180913D01682F80E390E00E94E3
S1130D60930B80913D01282F30E0C901880F991F12
S1130D70880F991F820F931FCC9690931301809331
S1130D8012018091120190911301CC01A0E0B0E016
S1130D90BC01CD010E94720ADC01CB012CE53FE8C5
S1130DA042EA50E4BC01CD010E94000BDC01CB01FE
S1130DB0BC01CD010E94460ADC01CB0190931901CC
S1130DC08093180180911801909119019C0140E0D1
S1130DD050E08EE19CE6A2E0B0E0BC01CD010E94AF
S1130DE0630BDA01C9019093190180931801888576
S1130DF0682F84E390E00E94930B888580933D01E3
S1130E0080913D01843018F484E080933D01809109
S1130E103D01682F82E390E00E94930B80913D0195
S1130E2080931A018F818C7080933D0180913D01E4
S1130E308695869580933D0180913D01682F81E2DE
S1130E4090E00E94930B80913D01282F30E044E60E
S1130E50429FC001439F900D112488539F4F90934C
S1130E601501809314018F81837080933D018091DB
S1130E703D01682F82E290E00E94930B80913D0136
S1130E80282F30E044E6429FC001439F900D112477
S1130E9088539F4F90931701809316018BE290E043
S1130EA02BE230E0F90120812068FC0120831092BC
S1130EB0310110923201109233011092340184E610
S1130EC08093100110C00E94900583E48093100168
S1130ED00AC0809157018F5F809357010E9490054B
S1130EE083E4809310010E947E072D960FB6F89438
S1130EF0DEBF0FBECDBFDF91CF910895CF93DF93B7
S1130F001F92CDB7DEB79091570180915601891792
S1130F10C0F482E990E00E948B0B89839091570181
S1130F2080915601292F281B822F9981890F89834B
S1130F30698182E990E00E94930B8091570180932C
S1130F40560190915301809152018917C0F481E9AF
S1130F5090E00E948B0B8983909153018091520100
S1130F60292F281B822F9981890F8983698181E91F
S1130F7090E00E94930B80915301809352019091D1
S1130F805501809154018917C0F480E990E00E94D2
S1130F908B0B89839091550180915401292F281B33
S1130FA0822F9981890F8983698180E990E00E9469
S1130FB0930B809155018093540190915901809134
S1130FC058018917C0F483E990E00E948B0B898350
S1130FD09091590180915801292F281B822F9981C2
S1130FE0890F8983698183E990E00E94930B809142
S1130FF05901809358010F90DF91CF910895CF92BA
S1131000DF92EF92FF92CF93DF93CDB7DEB71092CA
S11310102901109228011092270140911801509142
S1131020190180911A01282F30E0429FC001439F8B
S1131030900D529F900D11249093260180932501C9
S113104080914A01877080933D0180913D018823FE
S113105009F4ABC080913D01882F90E09C012D5F85
S11310603F4F43E3429FC001439F900D11240196DB
S11310709093240180932301809123019091240172
S1131080CC01A0E0B0E0BC01CD010E94720A6B016A
S11310907C018091140190911501CC01A0E0B0E095
S11310A0BC01CD010E94720ADC01CB019C01AD019F
S11310B0C701B6010E94DE09DC01CB0180931B014C
S11310C090931C01A0931D01B0931E0180912301F4
S11310D090912401CC01A0E0B0E0BC01CD010E94BC
S11310E0720A6B017C018091160190911701CC0169
S11310F0A0E0B0E0BC01CD010E94720ADC01CB018A
S11311009C01AD01C701B6010E94DE09DC01CB01DF
S113111080931F0190932001A0932101B093220199
S1131120409118015091190180911A01882F90E083
S1131130489F9001499F300D589F300D1124809194
S1131140270190912801281B390B8091140190915B
S11311501501281B390B8091160190911701A901E3
S1131160481B590BCA019093260180932501809155
S1131170270190912801009761F084E48093100185
S11311801092310110923201109233011092340105
S113119003C083E58093100188E690E028E630E000
S11311A0F90120812460FC012083DF91CF91FF901D
S11311B0EF90DF90CF900895CF93DF93CDB7DEB754
S11311C02091310130913201409133015091340129
S11311D080912701909128010197CC01A0E0B0E013
S11311E082179307A407B50718F483E580931001C9
S11311F0DF91CF910895CF93DF93CDB7DEB78BE224
S113120090E02BE230E0F90120812860FC0120838A
S11312100E94940180911101882341F18091290158
S1131220882369F088E290E020912F01222F30E09A
S1131230285F3E4FF9012081FC0120830CC088E225
S113124090E020912F01222F30E020503F4FF901F0
S11312502081FC01208310923101109232011092FE
S113126033011092340185E580931001DF91CF9111
S11312700895CF93DF93CDB7DEB78BE290E02BE2F6
S113128030E0F9012081277FFC0120830E94900532
S113129087E780931001DF91CF910895CF93DF9377
S11312A0CDB7DEB78091310190913201A091330125
S11312B0B0913401893B2BE09207A105B105B0F050
S11312C08BE290E02BE230E0F90120812F77FC01E2
S11312D02083109231011092320110923301109246
S11312E034010E94900587E780931001DF91CF912C
S11312F008955058BB27AA270ED048C139D130F0E1
S11313003ED120F031F49F3F11F41EF42EC10EF4AF
S1131310E095E7FB24C1E92F4AD180F3BA176207AD
S113132073078407950718F071F49EF562C10EF4F3
S1131330E0950B2EBA2FA02D0B01B90190010C01E1
S1131340CA01A0011124FF27591B99F0593F50F4F9
S1131350503E68F11A16F040A22F232F342F442751
S1131360585FF3CF469537952795A795F040539549
S1131370C9F77EF41F16BA0B620B730B840BBAF019
S11313809150A1F0FF0FBB1F661F771F881FC2F784
S11313900EC0BA0F621F731F841F48F48795779598
S11313A06795B795F7959E3F08F0B3CF9395880F4F
S11313B008F09927EE0F9795879508950CD0E6C00D
S11313C0DED040F0D5D030F021F45F3F19F0C7C033
S11313D0511110C1CAC0EBD098F39923C9F3552316
S11313E0B1F3951B550BBB27AA2762177307840714
S11313F038F09F5F5F4F220F331F441FAA1FA9F3CA
S113140033D00E2E3AF0E0E830D091505040E695BB
S1131410001CCAF729D0FE2F27D0660F771F881F1C
S1131420BB1F261737074807AB07B0E809F0BB0B0B
S1131430802DBF01FF2793585F4F2AF09E3F51052F
S113144068F08DC0D7C05F3FECF3983EDCF386951F
S113145077956795B795F7959F5FC9F7880F911DA5
S11314609695879597F90895E1E0660F771F881F91
S1131470BB1F621773078407BA0720F0621B730B44
S1131480840BBA0BEE1F88F7E095089598D088F086
S11314909F5790F0B92F9927B751A0F0D1F0660F5C
S11314A0771F881F991F1AF0BA95C9F712C0B13077
S11314B081F09FD0B1E008959CC0672F782F8827D2
S11314C0B85F39F0B93FCCF3869577956795B395B6
S11314D0D9F73EF490958095709561957F4F8F4F25
S11314E09F4F0895E89409C097FB3EF4909580952A
S11314F0709561957F4F8F4F9F4F9923A9F0F92FD6
S113150096E9BB279395F695879577956795B79553
S1131510F111F8CFFAF4BB0F11F460FF1BC06F5F39
S11315207F4F8F4F9F4F16C0882311F096E911C04B
S1131530772321F09EE8872F762F05C0662371F06C
S113154096E8862F70E060E02AF09A95660F771F80
S1131550881FDAF7880F9695879597F9089597F974
S11315609F6780E870E060E008959FEF80EC089545
S113157000240A941616170618060906089500246E
S11315800A9412161306140605060895092E0394E8
S1131590000C11F4882352F0BB0F40F4BF2B11F45C
S11315A060FF04C06F5F7F4F8F4F9F4F089557FDBB
S11315B09058440F551F59F05F3F71F04795880FBD
S11315C097FB991F61F09F3F79F087950895121654
S11315D013061406551FF2CF4695F1DF08C0161600
S11315E017061806991FF1CF8695710561050894B1
S11315F00895E894BB2766277727CB0197F90895C8
S11316000BD0C4CFB5DF28F0BADF18F0952309F06A
S1131610A6CFABCF1124EECFCADFA0F3959FD1F3B1
S1131620950F50E0551F629FF001729FBB27F00D8C
S1131630B11D639FAA27F00DB11DAA1F649F6627E1
S1131640B00DA11D661F829F2227B00DA11D621F30
S1131650739FB00DA11D621F839FA00D611D221FEA
S1131660749F3327A00D611D231F849F600D211DCE
S1131670822F762F6A2F11249F5750408AF0E1F071
S113168088234AF0EE0FFF1FBB1F661F771F881FBA
S113169091505040A9F79E3F510570F060CFAACFFA
S11316A05F3FECF3983EDCF3869577956795B795A5
S11316B0F795E7959F5FC1F7FE2B880F911D9695CF
S11316C0879597F90895A1E21A2EAA1BBB1BFD0169
S11316D00DC0AA1FBB1FEE1FFF1FA217B307E4070D
S11316E0F50720F0A21BB30BE40BF50B661F771F65
S11316F0881F991F1A9469F7609570958095909545
S11317009B01AC01BD01CF010895EE0FFF1F0590B1
S1131710F491E02D0994F999FECF92BD81BDF89A18
S1131720992780B50895262FF999FECF1FBA92BD47
S113173081BD20BD0FB6F894FA9AF99A0FBE0196AE
S10917400895F894FFCFA8
S113174638210A2214110C38380C1114220A2138B3
S9030000FC
